{
  "contractName": "CampaignManager",
  "abi": [
    {
      "anonymous": false,
      "inputs": [
        {
          "indexed": false,
          "internalType": "string",
          "name": "CampaignName",
          "type": "string"
        },
        {
          "indexed": false,
          "internalType": "string",
          "name": "Description",
          "type": "string"
        },
        {
          "indexed": false,
          "internalType": "uint256",
          "name": "FundingGoal",
          "type": "uint256"
        },
        {
          "indexed": false,
          "internalType": "uint256",
          "name": "Expiry",
          "type": "uint256"
        },
        {
          "indexed": false,
          "internalType": "address",
          "name": "Creator",
          "type": "address"
        },
        {
          "indexed": false,
          "internalType": "address",
          "name": "CrowdfundTokenAddress",
          "type": "address"
        }
      ],
      "name": "CampaignCreated",
      "type": "event"
    },
    {
      "inputs": [
        {
          "internalType": "uint256",
          "name": "",
          "type": "uint256"
        }
      ],
      "name": "deployedCampaigns",
      "outputs": [
        {
          "internalType": "address payable",
          "name": "",
          "type": "address"
        }
      ],
      "stateMutability": "view",
      "type": "function"
    },
    {
      "inputs": [
        {
          "internalType": "string",
          "name": "_CampaignName",
          "type": "string"
        },
        {
          "internalType": "string",
          "name": "_description",
          "type": "string"
        },
        {
          "internalType": "uint256",
          "name": "_fundingGoal",
          "type": "uint256"
        },
        {
          "internalType": "uint256",
          "name": "_expiry",
          "type": "uint256"
        },
        {
          "internalType": "address",
          "name": "_crowdfundTokenAddress",
          "type": "address"
        }
      ],
      "name": "createCampaign",
      "outputs": [],
      "stateMutability": "nonpayable",
      "type": "function"
    },
    {
      "inputs": [],
      "name": "getDeployedCampaigns",
      "outputs": [
        {
          "internalType": "address payable[]",
          "name": "",
          "type": "address[]"
        }
      ],
      "stateMutability": "view",
      "type": "function"
    }
  ],
  "bytecode": "0x608060405234801561001057600080fd5b506123b0806100206000396000f3fe60806040523480156200001157600080fd5b5060043610620000465760003560e01c80632bfec047146200004b578063339d50a5146200006b5780634acb9d4f14620000a1575b600080fd5b62000069600480360381019062000063919062000469565b620000c3565b005b6200008960048036038101906200008391906200052f565b620002df565b60405162000098919062000706565b60405180910390f35b620000ab6200031f565b604051620000ba919062000723565b60405180910390f35b600085905060008151141562000110576040517f08c379a00000000000000000000000000000000000000000000000000000000081526004016200010790620007e4565b60405180910390fd5b60008590506000815114156200015d576040517f08c379a0000000000000000000000000000000000000000000000000000000008152600401620001549062000828565b60405180910390fd5b428411620001a2576040517f08c379a00000000000000000000000000000000000000000000000000000000081526004016200019990620007c2565b60405180910390fd5b60008511620001e8576040517f08c379a0000000000000000000000000000000000000000000000000000000008152600401620001df9062000806565b60405180910390fd5b6000878787873388604051620001fe90620003af565b6200020f9695949392919062000747565b604051809103906000f0801580156200022c573d6000803e3d6000fd5b5090506000819080600181540180825580915050600190039060005260206000200160009091909190916101000a81548173ffffffffffffffffffffffffffffffffffffffff021916908373ffffffffffffffffffffffffffffffffffffffff1602179055507f370c40ab67fe1a1c3090520373aa9a0dcc98670b08328e357d582681054f54ce888888883389604051620002cd9695949392919062000747565b60405180910390a15050505050505050565b60008181548110620002f057600080fd5b906000526020600020016000915054906101000a900473ffffffffffffffffffffffffffffffffffffffff1681565b60606000805480602002602001604051908101604052809291908181526020018280548015620003a557602002820191906000526020600020905b8160009054906101000a900473ffffffffffffffffffffffffffffffffffffffff1673ffffffffffffffffffffffffffffffffffffffff16815260200190600101908083116200035a575b5050505050905090565b6118378062000b4483390190565b6000620003d4620003ce8462000873565b6200084a565b905082815260208101848484011115620003f357620003f2620009ff565b5b6200040084828562000950565b509392505050565b600081359050620004198162000b0f565b92915050565b600082601f830112620004375762000436620009fa565b5b813562000449848260208601620003bd565b91505092915050565b600081359050620004638162000b29565b92915050565b600080600080600060a0868803121562000488576200048762000a09565b5b600086013567ffffffffffffffff811115620004a957620004a862000a04565b5b620004b7888289016200041f565b955050602086013567ffffffffffffffff811115620004db57620004da62000a04565b5b620004e9888289016200041f565b9450506040620004fc8882890162000452565b93505060606200050f8882890162000452565b9250506080620005228882890162000408565b9150509295509295909350565b60006020828403121562000548576200054762000a09565b5b6000620005588482850162000452565b91505092915050565b60006200056f83836200057b565b60208301905092915050565b620005868162000912565b82525050565b620005978162000912565b82525050565b620005a881620008fe565b82525050565b6000620005bb82620008b9565b620005c78185620008dc565b9350620005d483620008a9565b8060005b838110156200060b578151620005ef888262000561565b9750620005fc83620008cf565b925050600181019050620005d8565b5085935050505092915050565b60006200062582620008c4565b620006318185620008ed565b9350620006438185602086016200095f565b6200064e8162000a0e565b840191505092915050565b600062000668601683620008ed565b9150620006758262000a1f565b602082019050919050565b60006200068f602783620008ed565b91506200069c8262000a48565b604082019050919050565b6000620006b6601683620008ed565b9150620006c38262000a97565b602082019050919050565b6000620006dd602e83620008ed565b9150620006ea8262000ac0565b604082019050919050565b620007008162000946565b82525050565b60006020820190506200071d60008301846200058c565b92915050565b600060208201905081810360008301526200073f8184620005ae565b905092915050565b600060c082019050818103600083015262000763818962000618565b9050818103602083015262000779818862000618565b90506200078a6040830187620006f5565b620007996060830186620006f5565b620007a860808301856200059d565b620007b760a08301846200059d565b979650505050505050565b60006020820190508181036000830152620007dd8162000659565b9050919050565b60006020820190508181036000830152620007ff8162000680565b9050919050565b600060208201905081810360008301526200082181620006a7565b9050919050565b600060208201905081810360008301526200084381620006ce565b9050919050565b60006200085662000869565b905062000864828262000995565b919050565b6000604051905090565b600067ffffffffffffffff821115620008915762000890620009cb565b5b6200089c8262000a0e565b9050602081019050919050565b6000819050602082019050919050565b600081519050919050565b600081519050919050565b6000602082019050919050565b600082825260208201905092915050565b600082825260208201905092915050565b60006200090b8262000926565b9050919050565b60006200091f8262000926565b9050919050565b600073ffffffffffffffffffffffffffffffffffffffff82169050919050565b6000819050919050565b82818337600083830152505050565b60005b838110156200097f57808201518184015260208101905062000962565b838111156200098f576000848401525b50505050565b620009a08262000a0e565b810181811067ffffffffffffffff82111715620009c257620009c1620009cb565b5b80604052505050565b7f4e487b7100000000000000000000000000000000000000000000000000000000600052604160045260246000fd5b600080fd5b600080fd5b600080fd5b600080fd5b6000601f19601f8301169050919050565b7f4578706972792074696d6520697320696e76616c696400000000000000000000600082015250565b7f43616d706169676e206e616d652063616e6e6f7420626520616e20656d70747960008201527f20737472696e6700000000000000000000000000000000000000000000000000602082015250565b7f476f616c20616d6f756e7420697320696e76616c696400000000000000000000600082015250565b7f43616d706169676e206465736372697074696f6e2063616e6e6f74206265206160008201527f6e20656d70747920737472696e67000000000000000000000000000000000000602082015250565b62000b1a81620008fe565b811462000b2657600080fd5b50565b62000b348162000946565b811462000b4057600080fd5b5056fe60806040523480156200001157600080fd5b506040516200183738038062001837833981810160405281019062000037919062000282565b816000806101000a81548173ffffffffffffffffffffffffffffffffffffffff021916908373ffffffffffffffffffffffffffffffffffffffff16021790555085600190805190602001906200008f92919062000126565b508460029080519060200190620000a892919062000126565b508360038190555082600481905550836006819055506000600760146101000a81548160ff02191690831515021790555080600760006101000a81548173ffffffffffffffffffffffffffffffffffffffff021916908373ffffffffffffffffffffffffffffffffffffffff16021790555050505050505062000552565b82805462000134906200042f565b90600052602060002090601f016020900481019282620001585760008555620001a4565b82601f106200017357805160ff1916838001178555620001a4565b82800160010185558215620001a4579182015b82811115620001a357825182559160200191906001019062000186565b5b509050620001b39190620001b7565b5090565b5b80821115620001d2576000816000905550600101620001b8565b5090565b6000620001ed620001e78462000385565b6200035c565b9050828152602081018484840111156200020c576200020b620004fe565b5b62000219848285620003f9565b509392505050565b60008151905062000232816200051e565b92915050565b600082601f83011262000250576200024f620004f9565b5b815162000262848260208601620001d6565b91505092915050565b6000815190506200027c8162000538565b92915050565b60008060008060008060c08789031215620002a257620002a162000508565b5b600087015167ffffffffffffffff811115620002c357620002c262000503565b5b620002d189828a0162000238565b965050602087015167ffffffffffffffff811115620002f557620002f462000503565b5b6200030389828a0162000238565b95505060406200031689828a016200026b565b94505060606200032989828a016200026b565b93505060806200033c89828a0162000221565b92505060a06200034f89828a0162000221565b9150509295509295509295565b6000620003686200037b565b905062000376828262000465565b919050565b6000604051905090565b600067ffffffffffffffff821115620003a357620003a2620004ca565b5b620003ae826200050d565b9050602081019050919050565b6000620003c882620003cf565b9050919050565b600073ffffffffffffffffffffffffffffffffffffffff82169050919050565b6000819050919050565b60005b8381101562000419578082015181840152602081019050620003fc565b8381111562000429576000848401525b50505050565b600060028204905060018216806200044857607f821691505b602082108114156200045f576200045e6200049b565b5b50919050565b62000470826200050d565b810181811067ffffffffffffffff82111715620004925762000491620004ca565b5b80604052505050565b7f4e487b7100000000000000000000000000000000000000000000000000000000600052602260045260246000fd5b7f4e487b7100000000000000000000000000000000000000000000000000000000600052604160045260246000fd5b600080fd5b600080fd5b600080fd5b600080fd5b6000601f19601f8301169050919050565b6200052981620003bb565b81146200053557600080fd5b50565b6200054381620003ef565b81146200054f57600080fd5b50565b6112d580620005626000396000f3fe608060405234801561001057600080fd5b50600436106100b45760003560e01c80636c259a57116100715780636c259a57146101575780636df793f2146101755780637e7cd1b3146101935780638191745f146101b157806386199769146101cf578063b2d5ae44146101ed576100b4565b806306621dec146100b957806318bee97e146100d757806324600fc3146100f55780632afcf480146100ff57806344aa57001461011b5780634e48138714610139575b600080fd5b6100c16101f7565b6040516100ce9190610e8c565b60405180910390f35b6100df6101fd565b6040516100ec9190610d14565b60405180910390f35b6100fd610221565b005b61011960048036038101906101149190610baf565b6104bb565b005b61012361072e565b6040516101309190610d8f565b60405180910390f35b610141610741565b60405161014e9190610e8c565b60405180910390f35b61015f610747565b60405161016c9190610d14565b60405180910390f35b61017d61076d565b60405161018a9190610e8c565b60405180910390f35b61019b610773565b6040516101a89190610daa565b60405180910390f35b6101b9610801565b6040516101c69190610daa565b60405180910390f35b6101d761088f565b6040516101e49190610e8c565b60405180910390f35b6101f5610895565b005b60055481565b60008054906101000a900473ffffffffffffffffffffffffffffffffffffffff1681565b60008054906101000a900473ffffffffffffffffffffffffffffffffffffffff1673ffffffffffffffffffffffffffffffffffffffff163373ffffffffffffffffffffffffffffffffffffffff16146102af576040517f08c379a00000000000000000000000000000000000000000000000000000000081526004016102a690610e4c565b60405180910390fd5b42600454106102ea576040517f806dd6f900000000000000000000000000000000000000000000000000000000815260040160405180910390fd5b60055460035414610327576040517f0b800d8a00000000000000000000000000000000000000000000000000000000815260040160405180910390fd5b60001515600760149054906101000a900460ff1615151461037d576040517f08c379a000000000000000000000000000000000000000000000000000000000815260040161037490610e6c565b60405180910390fd5b6000600760009054906101000a900473ffffffffffffffffffffffffffffffffffffffff1673ffffffffffffffffffffffffffffffffffffffff166323b872dd3060008054906101000a900473ffffffffffffffffffffffffffffffffffffffff166005546040518463ffffffff1660e01b815260040161040093929190610d2f565b602060405180830381600087803b15801561041a57600080fd5b505af115801561042e573d6000803e3d6000fd5b505050506040513d601f19601f820116820180604052508101906104529190610b82565b90508061045e57600080fd5b60006006819055506001600760146101000a81548160ff0219169083151502179055507f9de6ef48940124ce21ebada74df10844d75ca832a0412b522db70a71246487a9426040516104b09190610e8c565b60405180910390a150565b42600454116104f6576040517f1416cd8300000000000000000000000000000000000000000000000000000000815260040160405180910390fd5b6005546003541415610534576040517fc1bcc38800000000000000000000000000000000000000000000000000000000815260040160405180910390fd5b60008111610577576040517f08c379a000000000000000000000000000000000000000000000000000000000815260040161056e90610e2c565b60405180910390fd5b6006548111156105bc576040517f08c379a00000000000000000000000000000000000000000000000000000000081526004016105b390610e0c565b60405180910390fd5b6000600760009054906101000a900473ffffffffffffffffffffffffffffffffffffffff1673ffffffffffffffffffffffffffffffffffffffff166323b872dd3330856040518463ffffffff1660e01b815260040161061d93929190610d2f565b602060405180830381600087803b15801561063757600080fd5b505af115801561064b573d6000803e3d6000fd5b505050506040513d601f19601f8201168201806040525081019061066f9190610b82565b90508061067b57600080fd5b816005600082825461068d9190610eec565b9250508190555081600660008282546106a69190610f42565b9250508190555081600860003373ffffffffffffffffffffffffffffffffffffffff1673ffffffffffffffffffffffffffffffffffffffff168152602001908152602001600020819055507f9efb7bee1818185076cae55cfdf66d6fbde3b5aef8d1f2340ad24eb6b8c6540c8233604051610722929190610ea7565b60405180910390a15050565b600760149054906101000a900460ff1681565b60065481565b600760009054906101000a900473ffffffffffffffffffffffffffffffffffffffff1681565b60045481565b6001805461078090610ff1565b80601f01602080910402602001604051908101604052809291908181526020018280546107ac90610ff1565b80156107f95780601f106107ce576101008083540402835291602001916107f9565b820191906000526020600020905b8154815290600101906020018083116107dc57829003601f168201915b505050505081565b6002805461080e90610ff1565b80601f016020809104026020016040519081016040528092919081815260200182805461083a90610ff1565b80156108875780601f1061085c57610100808354040283529160200191610887565b820191906000526020600020905b81548152906001019060200180831161086a57829003601f168201915b505050505081565b60035481565b6000600860003373ffffffffffffffffffffffffffffffffffffffff1673ffffffffffffffffffffffffffffffffffffffff168152602001908152602001600020541415610918576040517f08c379a000000000000000000000000000000000000000000000000000000000815260040161090f90610dec565b60405180910390fd5b4260045410610953576040517f806dd6f900000000000000000000000000000000000000000000000000000000815260040160405180910390fd5b600354600554141561099a576040517f08c379a000000000000000000000000000000000000000000000000000000000815260040161099190610dcc565b60405180910390fd5b6000600760009054906101000a900473ffffffffffffffffffffffffffffffffffffffff1673ffffffffffffffffffffffffffffffffffffffff166323b872dd3033600860003373ffffffffffffffffffffffffffffffffffffffff1673ffffffffffffffffffffffffffffffffffffffff168152602001908152602001600020546040518463ffffffff1660e01b8152600401610a3a93929190610d2f565b602060405180830381600087803b158015610a5457600080fd5b505af1158015610a68573d6000803e3d6000fd5b505050506040513d601f19601f82011682018060405250810190610a8c9190610b82565b905080610a9857600080fd5b6000600860003373ffffffffffffffffffffffffffffffffffffffff1673ffffffffffffffffffffffffffffffffffffffff168152602001908152602001600020819055507f08d2dc0783d8a5634dd5b6db3f7f19117fbad8bf7f7c04055f4927eb27ac4f8733600860003373ffffffffffffffffffffffffffffffffffffffff1673ffffffffffffffffffffffffffffffffffffffff16815260200190815260200160002054604051610b4d929190610d66565b60405180910390a150565b600081519050610b6781611271565b92915050565b600081359050610b7c81611288565b92915050565b600060208284031215610b9857610b97611081565b5b6000610ba684828501610b58565b91505092915050565b600060208284031215610bc557610bc4611081565b5b6000610bd384828501610b6d565b91505092915050565b610be581610f76565b82525050565b610bf481610f88565b82525050565b6000610c0582610ed0565b610c0f8185610edb565b9350610c1f818560208601610fbe565b610c2881611086565b840191505092915050565b6000610c40603483610edb565b9150610c4b82611097565b604082019050919050565b6000610c63601883610edb565b9150610c6e826110e6565b602082019050919050565b6000610c86604b83610edb565b9150610c918261110f565b606082019050919050565b6000610ca9602283610edb565b9150610cb482611184565b604082019050919050565b6000610ccc602c83610edb565b9150610cd7826111d3565b604082019050919050565b6000610cef602483610edb565b9150610cfa82611222565b604082019050919050565b610d0e81610fb4565b82525050565b6000602082019050610d296000830184610bdc565b92915050565b6000606082019050610d446000830186610bdc565b610d516020830185610bdc565b610d5e6040830184610d05565b949350505050565b6000604082019050610d7b6000830185610bdc565b610d886020830184610d05565b9392505050565b6000602082019050610da46000830184610beb565b92915050565b60006020820190508181036000830152610dc48184610bfa565b905092915050565b60006020820190508181036000830152610de581610c33565b9050919050565b60006020820190508181036000830152610e0581610c56565b9050919050565b60006020820190508181036000830152610e2581610c79565b9050919050565b60006020820190508181036000830152610e4581610c9c565b9050919050565b60006020820190508181036000830152610e6581610cbf565b9050919050565b60006020820190508181036000830152610e8581610ce2565b9050919050565b6000602082019050610ea16000830184610d05565b92915050565b6000604082019050610ebc6000830185610d05565b610ec96020830184610bdc565b9392505050565b600081519050919050565b600082825260208201905092915050565b6000610ef782610fb4565b9150610f0283610fb4565b9250827fffffffffffffffffffffffffffffffffffffffffffffffffffffffffffffffff03821115610f3757610f36611023565b5b828201905092915050565b6000610f4d82610fb4565b9150610f5883610fb4565b925082821015610f6b57610f6a611023565b5b828203905092915050565b6000610f8182610f94565b9050919050565b60008115159050919050565b600073ffffffffffffffffffffffffffffffffffffffff82169050919050565b6000819050919050565b60005b83811015610fdc578082015181840152602081019050610fc1565b83811115610feb576000848401525b50505050565b6000600282049050600182168061100957607f821691505b6020821081141561101d5761101c611052565b5b50919050565b7f4e487b7100000000000000000000000000000000000000000000000000000000600052601160045260246000fd5b7f4e487b7100000000000000000000000000000000000000000000000000000000600052602260045260246000fd5b600080fd5b6000601f19601f8301169050919050565b7f576974686472617720686173206265656e20646961626c65642061732074686560008201527f2066756e64696e6720676f616c206973206d6574000000000000000000000000602082015250565b7f596f7520617265206e6f7420616e20696e766573746f72210000000000000000600082015250565b7f506c6561736520636865636b204d6178496e766573746d656e7420746f20736560008201527f65207768617420697320746865206d6178696d756d20616d6f756e7420796f7560208201527f2063616e20696e76657374000000000000000000000000000000000000000000604082015250565b7f416d6f756e742073686f756c642062652067726561746572207468616e207a6560008201527f726f000000000000000000000000000000000000000000000000000000000000602082015250565b7f596f7520617265206e6f7420617574686f72697a656420746f2063616c6c207460008201527f6869732066756e6374696f6e0000000000000000000000000000000000000000602082015250565b7f596f75206861766520616c72656164792077697468647261776e20746865206660008201527f756e647300000000000000000000000000000000000000000000000000000000602082015250565b61127a81610f88565b811461128557600080fd5b50565b61129181610fb4565b811461129c57600080fd5b5056fea26469706673582212203c85767e1887dfe87ef510cf3b3501fa2c2850e30bb484022c1a0b061ff420bc64736f6c63430008060033a26469706673582212208448fa62d6cb04e216f2b1c6cd7e8eed38658c6cf7e45c094b9fd073fdd6a11364736f6c63430008060033",
  "immutableReferences": {},
  "source": "// SPDX-License-Identifier: UNLICENCED\n\npragma solidity 0.8.6;\n\nimport './Campaign.sol'; \n\ncontract CampaignManager {\n    /*\n    1. This is a smart contract used to deploy the instance of a crowdfunding campaign.\n    2. A person who wants to create a crowdfunding campaign calls the 'createCampaign' function and a smart contract gets deployed for his campaign.\n    3. 'getDeployedCampaigns' can be called to get the list of all the deployed crowdfunding campaign smart contracts.\n     */\n    \n    // Event\n    event CampaignCreated(string CampaignName, string Description, uint FundingGoal, uint Expiry, address Creator, address CrowdfundTokenAddress);\n    \n    // An array of the deployed campaigns.\n    address payable[] public deployedCampaigns;\n\n    // Deployes an instance of a campaign contract.\n    function createCampaign(string memory _CampaignName, string memory _description, uint _fundingGoal, uint _expiry, address _crowdfundTokenAddress) external {\n        // Reverts an error if the Campaign name is empty.\n        bytes memory emptyStringNameTest = bytes(_CampaignName);\n        require(!(emptyStringNameTest.length == 0),\"Campaign name cannot be an empty string\");\n        // Reverts an error if the Description of the campaign is empty.\n        bytes memory emptyStringDescriptionTest = bytes(_description);\n        require(!(emptyStringDescriptionTest.length == 0),\"Campaign description cannot be an empty string\");\n        \n        require(_expiry > block.timestamp,\"Expiry time is invalid\");\n        require(_fundingGoal > 0,\"Goal amount is invalid\");\n        \n        address newCampaign = address(new Campaign(_CampaignName, _description, _fundingGoal, _expiry, msg.sender,_crowdfundTokenAddress));\n        deployedCampaigns.push(payable(newCampaign));\n        emit CampaignCreated(_CampaignName, _description, _fundingGoal, _expiry, msg.sender,_crowdfundTokenAddress);\n    }\n\n    // Gets the list of all the deployed campaign contracts.\n    function getDeployedCampaigns() public view returns (address payable[] memory) {\n        return deployedCampaigns;\n    }\n}\n",
  "sourcePath": "/home/adibhagavath/blockchain/metacrafters/metacrafters_challenge/contracts/CampaignManager.sol",
  "compiler": {
    "name": "solc",
    "version": "0.8.6+commit.11564f7e.Emscripten.clang"
  },
  "schemaVersion": "3.4.11",
  "updatedAt": "2023-01-05T11:59:10.409Z",
  "devdoc": {
    "kind": "dev",
    "methods": {},
    "version": 1
  },
  "userdoc": {
    "kind": "user",
    "methods": {},
    "version": 1
  }
}