{
  "contractName": "CrowdFundToken",
  "abi": [
    {
      "inputs": [],
      "stateMutability": "nonpayable",
      "type": "constructor"
    },
    {
      "anonymous": false,
      "inputs": [
        {
          "indexed": true,
          "internalType": "address",
          "name": "_owner",
          "type": "address"
        },
        {
          "indexed": true,
          "internalType": "address",
          "name": "_spender",
          "type": "address"
        },
        {
          "indexed": false,
          "internalType": "uint256",
          "name": "_value",
          "type": "uint256"
        }
      ],
      "name": "Approval",
      "type": "event"
    },
    {
      "anonymous": false,
      "inputs": [
        {
          "indexed": true,
          "internalType": "address",
          "name": "previousOwner",
          "type": "address"
        },
        {
          "indexed": true,
          "internalType": "address",
          "name": "newOwner",
          "type": "address"
        }
      ],
      "name": "OwnershipTransferred",
      "type": "event"
    },
    {
      "anonymous": false,
      "inputs": [
        {
          "indexed": true,
          "internalType": "address",
          "name": "_from",
          "type": "address"
        },
        {
          "indexed": true,
          "internalType": "address",
          "name": "_to",
          "type": "address"
        },
        {
          "indexed": false,
          "internalType": "uint256",
          "name": "_value",
          "type": "uint256"
        }
      ],
      "name": "Transfer",
      "type": "event"
    },
    {
      "inputs": [],
      "name": "_decimal",
      "outputs": [
        {
          "internalType": "uint8",
          "name": "",
          "type": "uint8"
        }
      ],
      "stateMutability": "view",
      "type": "function"
    },
    {
      "inputs": [],
      "name": "_minter",
      "outputs": [
        {
          "internalType": "address",
          "name": "",
          "type": "address"
        }
      ],
      "stateMutability": "view",
      "type": "function"
    },
    {
      "inputs": [],
      "name": "_name",
      "outputs": [
        {
          "internalType": "string",
          "name": "",
          "type": "string"
        }
      ],
      "stateMutability": "view",
      "type": "function"
    },
    {
      "inputs": [],
      "name": "_symbol",
      "outputs": [
        {
          "internalType": "string",
          "name": "",
          "type": "string"
        }
      ],
      "stateMutability": "view",
      "type": "function"
    },
    {
      "inputs": [],
      "name": "_totalSupply",
      "outputs": [
        {
          "internalType": "uint256",
          "name": "",
          "type": "uint256"
        }
      ],
      "stateMutability": "view",
      "type": "function"
    },
    {
      "inputs": [],
      "name": "owner",
      "outputs": [
        {
          "internalType": "address",
          "name": "",
          "type": "address"
        }
      ],
      "stateMutability": "view",
      "type": "function"
    },
    {
      "inputs": [],
      "name": "renounceOwnership",
      "outputs": [],
      "stateMutability": "nonpayable",
      "type": "function"
    },
    {
      "inputs": [
        {
          "internalType": "address",
          "name": "newOwner",
          "type": "address"
        }
      ],
      "name": "transferOwnership",
      "outputs": [],
      "stateMutability": "nonpayable",
      "type": "function"
    },
    {
      "inputs": [],
      "name": "name",
      "outputs": [
        {
          "internalType": "string",
          "name": "",
          "type": "string"
        }
      ],
      "stateMutability": "view",
      "type": "function"
    },
    {
      "inputs": [],
      "name": "symbol",
      "outputs": [
        {
          "internalType": "string",
          "name": "",
          "type": "string"
        }
      ],
      "stateMutability": "view",
      "type": "function"
    },
    {
      "inputs": [],
      "name": "decimals",
      "outputs": [
        {
          "internalType": "uint8",
          "name": "",
          "type": "uint8"
        }
      ],
      "stateMutability": "view",
      "type": "function"
    },
    {
      "inputs": [],
      "name": "totalSupply",
      "outputs": [
        {
          "internalType": "uint256",
          "name": "",
          "type": "uint256"
        }
      ],
      "stateMutability": "view",
      "type": "function"
    },
    {
      "inputs": [
        {
          "internalType": "address",
          "name": "_owner",
          "type": "address"
        }
      ],
      "name": "balanceOf",
      "outputs": [
        {
          "internalType": "uint256",
          "name": "balance",
          "type": "uint256"
        }
      ],
      "stateMutability": "view",
      "type": "function"
    },
    {
      "inputs": [
        {
          "internalType": "address",
          "name": "_from",
          "type": "address"
        },
        {
          "internalType": "address",
          "name": "_to",
          "type": "address"
        },
        {
          "internalType": "uint256",
          "name": "_value",
          "type": "uint256"
        }
      ],
      "name": "transferFrom",
      "outputs": [
        {
          "internalType": "bool",
          "name": "success",
          "type": "bool"
        }
      ],
      "stateMutability": "nonpayable",
      "type": "function"
    },
    {
      "inputs": [
        {
          "internalType": "address",
          "name": "_to",
          "type": "address"
        },
        {
          "internalType": "uint256",
          "name": "_value",
          "type": "uint256"
        }
      ],
      "name": "transfer",
      "outputs": [
        {
          "internalType": "bool",
          "name": "success",
          "type": "bool"
        }
      ],
      "stateMutability": "nonpayable",
      "type": "function"
    },
    {
      "inputs": [
        {
          "internalType": "address",
          "name": "_spender",
          "type": "address"
        },
        {
          "internalType": "uint256",
          "name": "_value",
          "type": "uint256"
        }
      ],
      "name": "approve",
      "outputs": [
        {
          "internalType": "bool",
          "name": "success",
          "type": "bool"
        }
      ],
      "stateMutability": "nonpayable",
      "type": "function"
    },
    {
      "inputs": [
        {
          "internalType": "address",
          "name": "_owner",
          "type": "address"
        },
        {
          "internalType": "address",
          "name": "_spender",
          "type": "address"
        }
      ],
      "name": "allowance",
      "outputs": [
        {
          "internalType": "uint256",
          "name": "remaining",
          "type": "uint256"
        }
      ],
      "stateMutability": "view",
      "type": "function"
    },
    {
      "inputs": [
        {
          "internalType": "uint256",
          "name": "_amount",
          "type": "uint256"
        }
      ],
      "name": "mint",
      "outputs": [
        {
          "internalType": "bool",
          "name": "",
          "type": "bool"
        }
      ],
      "stateMutability": "nonpayable",
      "type": "function"
    }
  ],
  "bytecode": "0x60806040523480156200001157600080fd5b5062000032620000266200022f60201b60201c565b6200023760201b60201c565b6040518060400160405280600e81526020017f43726f776446756e64546f6b656e000000000000000000000000000000000000815250600190805190602001906200007f929190620002fb565b506040518060400160405280600381526020017f434654000000000000000000000000000000000000000000000000000000000081525060029080519060200190620000cd929190620002fb565b506012600360006101000a81548160ff021916908360ff1602179055506203345060048190555033600560006101000a81548173ffffffffffffffffffffffffffffffffffffffff021916908373ffffffffffffffffffffffffffffffffffffffff16021790555060045460066000600560009054906101000a900473ffffffffffffffffffffffffffffffffffffffff1673ffffffffffffffffffffffffffffffffffffffff1673ffffffffffffffffffffffffffffffffffffffff16815260200190815260200160002081905550600560009054906101000a900473ffffffffffffffffffffffffffffffffffffffff1673ffffffffffffffffffffffffffffffffffffffff16600073ffffffffffffffffffffffffffffffffffffffff167fddf252ad1be2c89b69c2b068fc378daa952ba7f163c4a11628f55a4df523b3ef600454604051620002219190620003bc565b60405180910390a362000448565b600033905090565b60008060009054906101000a900473ffffffffffffffffffffffffffffffffffffffff169050816000806101000a81548173ffffffffffffffffffffffffffffffffffffffff021916908373ffffffffffffffffffffffffffffffffffffffff1602179055508173ffffffffffffffffffffffffffffffffffffffff168173ffffffffffffffffffffffffffffffffffffffff167f8be0079c531659141344cd1fd0a4f28419497f9722a3daafe3b4186f6b6457e060405160405180910390a35050565b8280546200030990620003e3565b90600052602060002090601f0160209004810192826200032d576000855562000379565b82601f106200034857805160ff191683800117855562000379565b8280016001018555821562000379579182015b82811115620003785782518255916020019190600101906200035b565b5b5090506200038891906200038c565b5090565b5b80821115620003a75760008160009055506001016200038d565b5090565b620003b681620003d9565b82525050565b6000602082019050620003d36000830184620003ab565b92915050565b6000819050919050565b60006002820490506001821680620003fc57607f821691505b6020821081141562000413576200041262000419565b5b50919050565b7f4e487b7100000000000000000000000000000000000000000000000000000000600052602260045260246000fd5b6112a880620004586000396000f3fe608060405234801561001057600080fd5b50600436106101165760003560e01c8063715018a6116100a2578063a9059cbb11610071578063a9059cbb146102d5578063b09f126614610305578063d28d885214610323578063dd62ed3e14610341578063f2fde38b1461037157610116565b8063715018a61461025f5780638da5cb5b1461026957806395d89b4114610287578063a0712d68146102a557610116565b80632f0e3120116100e95780632f0e3120146101b7578063313ce567146101d55780633eaaf86b146101f3578063578ec33f1461021157806370a082311461022f57610116565b806306fdde031461011b578063095ea7b31461013957806318160ddd1461016957806323b872dd14610187575b600080fd5b61012361038d565b6040516101309190610f60565b60405180910390f35b610153600480360381019061014e9190610e02565b61041f565b6040516101609190610f45565b60405180910390f35b610171610511565b60405161017e9190610fc2565b60405180910390f35b6101a1600480360381019061019c9190610daf565b61051b565b6040516101ae9190610f45565b60405180910390f35b6101bf61072e565b6040516101cc9190610fdd565b60405180910390f35b6101dd610741565b6040516101ea9190610fdd565b60405180910390f35b6101fb610758565b6040516102089190610fc2565b60405180910390f35b61021961075e565b6040516102269190610f2a565b60405180910390f35b61024960048036038101906102449190610d42565b610784565b6040516102569190610fc2565b60405180910390f35b6102676107cd565b005b6102716107e1565b60405161027e9190610f2a565b60405180910390f35b61028f61080a565b60405161029c9190610f60565b60405180910390f35b6102bf60048036038101906102ba9190610e42565b61089c565b6040516102cc9190610f45565b60405180910390f35b6102ef60048036038101906102ea9190610e02565b610992565b6040516102fc9190610f45565b60405180910390f35b61030d6109a7565b60405161031a9190610f60565b60405180910390f35b61032b610a35565b6040516103389190610f60565b60405180910390f35b61035b60048036038101906103569190610d6f565b610ac3565b6040516103689190610fc2565b60405180910390f35b61038b60048036038101906103869190610d42565b610b4a565b005b60606001805461039c90611126565b80601f01602080910402602001604051908101604052809291908181526020018280546103c890611126565b80156104155780601f106103ea57610100808354040283529160200191610415565b820191906000526020600020905b8154815290600101906020018083116103f857829003601f168201915b5050505050905090565b600081600760003373ffffffffffffffffffffffffffffffffffffffff1673ffffffffffffffffffffffffffffffffffffffff16815260200190815260200160002060008573ffffffffffffffffffffffffffffffffffffffff1673ffffffffffffffffffffffffffffffffffffffff168152602001908152602001600020819055508273ffffffffffffffffffffffffffffffffffffffff163373ffffffffffffffffffffffffffffffffffffffff167f8c5be1e5ebec7d5bd14f71427d1e84f3dd0314c0f7b2291e5b200ac8c7c3b925846040516104ff9190610fc2565b60405180910390a36001905092915050565b6000600454905090565b600081600660008673ffffffffffffffffffffffffffffffffffffffff1673ffffffffffffffffffffffffffffffffffffffff1681526020019081526020016000205410158061060957508160076000600560009054906101000a900473ffffffffffffffffffffffffffffffffffffffff1673ffffffffffffffffffffffffffffffffffffffff1673ffffffffffffffffffffffffffffffffffffffff16815260200190815260200160002060008673ffffffffffffffffffffffffffffffffffffffff1673ffffffffffffffffffffffffffffffffffffffff1681526020019081526020016000205410155b61061257600080fd5b81600660008673ffffffffffffffffffffffffffffffffffffffff1673ffffffffffffffffffffffffffffffffffffffff1681526020019081526020016000206000828254610661919061106a565b9250508190555081600660008573ffffffffffffffffffffffffffffffffffffffff1673ffffffffffffffffffffffffffffffffffffffff16815260200190815260200160002060008282546106b79190611014565b925050819055508273ffffffffffffffffffffffffffffffffffffffff168473ffffffffffffffffffffffffffffffffffffffff167fddf252ad1be2c89b69c2b068fc378daa952ba7f163c4a11628f55a4df523b3ef8460405161071b9190610fc2565b60405180910390a3600190509392505050565b600360009054906101000a900460ff1681565b6000600360009054906101000a900460ff16905090565b60045481565b600560009054906101000a900473ffffffffffffffffffffffffffffffffffffffff1681565b6000600660008373ffffffffffffffffffffffffffffffffffffffff1673ffffffffffffffffffffffffffffffffffffffff168152602001908152602001600020549050919050565b6107d5610bce565b6107df6000610c4c565b565b60008060009054906101000a900473ffffffffffffffffffffffffffffffffffffffff16905090565b60606002805461081990611126565b80601f016020809104026020016040519081016040528092919081815260200182805461084590611126565b80156108925780601f1061086757610100808354040283529160200191610892565b820191906000526020600020905b81548152906001019060200180831161087557829003601f168201915b5050505050905090565b6000600560009054906101000a900473ffffffffffffffffffffffffffffffffffffffff1673ffffffffffffffffffffffffffffffffffffffff163373ffffffffffffffffffffffffffffffffffffffff16146108f857600080fd5b8160066000600560009054906101000a900473ffffffffffffffffffffffffffffffffffffffff1673ffffffffffffffffffffffffffffffffffffffff1673ffffffffffffffffffffffffffffffffffffffff16815260200190815260200160002060008282546109699190611014565b9250508190555081600460008282546109829190611014565b9250508190555060019050919050565b600061099f33848461051b565b905092915050565b600280546109b490611126565b80601f01602080910402602001604051908101604052809291908181526020018280546109e090611126565b8015610a2d5780601f10610a0257610100808354040283529160200191610a2d565b820191906000526020600020905b815481529060010190602001808311610a1057829003601f168201915b505050505081565b60018054610a4290611126565b80601f0160208091040260200160405190810160405280929190818152602001828054610a6e90611126565b8015610abb5780601f10610a9057610100808354040283529160200191610abb565b820191906000526020600020905b815481529060010190602001808311610a9e57829003601f168201915b505050505081565b6000600760008473ffffffffffffffffffffffffffffffffffffffff1673ffffffffffffffffffffffffffffffffffffffff16815260200190815260200160002060008373ffffffffffffffffffffffffffffffffffffffff1673ffffffffffffffffffffffffffffffffffffffff16815260200190815260200160002054905092915050565b610b52610bce565b600073ffffffffffffffffffffffffffffffffffffffff168173ffffffffffffffffffffffffffffffffffffffff161415610bc2576040517f08c379a0000000000000000000000000000000000000000000000000000000008152600401610bb990610f82565b60405180910390fd5b610bcb81610c4c565b50565b610bd6610d10565b73ffffffffffffffffffffffffffffffffffffffff16610bf46107e1565b73ffffffffffffffffffffffffffffffffffffffff1614610c4a576040517f08c379a0000000000000000000000000000000000000000000000000000000008152600401610c4190610fa2565b60405180910390fd5b565b60008060009054906101000a900473ffffffffffffffffffffffffffffffffffffffff169050816000806101000a81548173ffffffffffffffffffffffffffffffffffffffff021916908373ffffffffffffffffffffffffffffffffffffffff1602179055508173ffffffffffffffffffffffffffffffffffffffff168173ffffffffffffffffffffffffffffffffffffffff167f8be0079c531659141344cd1fd0a4f28419497f9722a3daafe3b4186f6b6457e060405160405180910390a35050565b600033905090565b600081359050610d2781611244565b92915050565b600081359050610d3c8161125b565b92915050565b600060208284031215610d5857610d576111b6565b5b6000610d6684828501610d18565b91505092915050565b60008060408385031215610d8657610d856111b6565b5b6000610d9485828601610d18565b9250506020610da585828601610d18565b9150509250929050565b600080600060608486031215610dc857610dc76111b6565b5b6000610dd686828701610d18565b9350506020610de786828701610d18565b9250506040610df886828701610d2d565b9150509250925092565b60008060408385031215610e1957610e186111b6565b5b6000610e2785828601610d18565b9250506020610e3885828601610d2d565b9150509250929050565b600060208284031215610e5857610e576111b6565b5b6000610e6684828501610d2d565b91505092915050565b610e788161109e565b82525050565b610e87816110b0565b82525050565b6000610e9882610ff8565b610ea28185611003565b9350610eb28185602086016110f3565b610ebb816111bb565b840191505092915050565b6000610ed3602683611003565b9150610ede826111cc565b604082019050919050565b6000610ef6602083611003565b9150610f018261121b565b602082019050919050565b610f15816110dc565b82525050565b610f24816110e6565b82525050565b6000602082019050610f3f6000830184610e6f565b92915050565b6000602082019050610f5a6000830184610e7e565b92915050565b60006020820190508181036000830152610f7a8184610e8d565b905092915050565b60006020820190508181036000830152610f9b81610ec6565b9050919050565b60006020820190508181036000830152610fbb81610ee9565b9050919050565b6000602082019050610fd76000830184610f0c565b92915050565b6000602082019050610ff26000830184610f1b565b92915050565b600081519050919050565b600082825260208201905092915050565b600061101f826110dc565b915061102a836110dc565b9250827fffffffffffffffffffffffffffffffffffffffffffffffffffffffffffffffff0382111561105f5761105e611158565b5b828201905092915050565b6000611075826110dc565b9150611080836110dc565b92508282101561109357611092611158565b5b828203905092915050565b60006110a9826110bc565b9050919050565b60008115159050919050565b600073ffffffffffffffffffffffffffffffffffffffff82169050919050565b6000819050919050565b600060ff82169050919050565b60005b838110156111115780820151818401526020810190506110f6565b83811115611120576000848401525b50505050565b6000600282049050600182168061113e57607f821691505b6020821081141561115257611151611187565b5b50919050565b7f4e487b7100000000000000000000000000000000000000000000000000000000600052601160045260246000fd5b7f4e487b7100000000000000000000000000000000000000000000000000000000600052602260045260246000fd5b600080fd5b6000601f19601f8301169050919050565b7f4f776e61626c653a206e6577206f776e657220697320746865207a65726f206160008201527f6464726573730000000000000000000000000000000000000000000000000000602082015250565b7f4f776e61626c653a2063616c6c6572206973206e6f7420746865206f776e6572600082015250565b61124d8161109e565b811461125857600080fd5b50565b611264816110dc565b811461126f57600080fd5b5056fea264697066735822122014e59de792f164ff489e74f4dc640b212d89586bbef59af58d929c10a3dbf94164736f6c63430008060033",
  "immutableReferences": {},
  "source": "// SPDX-License-Identifier: UNLICENCED\npragma solidity 0.8.6;\n\nimport \"@openzeppelin/contracts/access/Ownable.sol\";\n\n\nabstract contract ERC20 {\n    function name() public view virtual returns (string memory);\n    function symbol() public view virtual returns (string memory);\n    function decimals() public view virtual returns (uint8);\n    function totalSupply() public view virtual returns (uint256);\n    function balanceOf(address _owner) public view virtual returns (uint256 balance);\n    function transfer(address _to, uint256 _value) public virtual returns (bool success);\n    function transferFrom(address _from, address _to, uint256 _value) public virtual returns (bool success);\n    function approve(address _spender, uint256 _value) public virtual returns (bool success);\n    function allowance(address _owner, address _spender) public virtual view returns (uint256 remaining);\n\n    event Transfer(address indexed _from, address indexed _to, uint256 _value);\n    event Approval(address indexed _owner, address indexed _spender, uint256 _value);\n\n}\n\ncontract CrowdFundToken is ERC20, Ownable{\n\n/*\nThis is an ERC-20 contract. \n */\n    string public _name;\n    string public _symbol;\n    uint8 public _decimal;\n    uint public _totalSupply;\n    address public _minter;\n\n    mapping(address => uint) balances;\n    mapping(address => mapping(address => uint256)) allowed;\n\n    constructor () {\n        _name = \"CrowdFundToken\";\n        _symbol = \"CFT\";\n        _decimal = 18;\n        _totalSupply = 210000;\n        _minter = msg.sender;\n\n        balances[_minter] = _totalSupply;\n        emit Transfer(address(0),_minter,_totalSupply);\n    }\n    // Returns the name of the token\n    function name() public override view returns (string memory){\n        return _name;\n    }\n    \n    // Returns the symbol of the token\n    function symbol() public override view returns (string memory){\n        return _symbol;\n    }\n    // Returns the symbol of the token\n    function decimals() public override view returns (uint8){\n        return _decimal;\n    }\n    // Returns the total supply\n    function totalSupply() public override view returns (uint256){\n        return _totalSupply;\n    }\n    // Returns the balance of an address\n    function balanceOf(address _owner) public override view returns (uint256 balance){\n        return balances[_owner];\n    }\n    // Transfer the funds\n    function transferFrom(address _from, address _to,uint256 _value) public override returns (bool success){\n        require(balances[_from] >= _value || allowed[_minter][_from] >= _value);\n        balances[_from] -= _value;\n        balances[_to] += _value;\n        emit Transfer(_from,_to,_value);\n        return true;\n    }\n    \n    // Transfer the funds\n    function transfer(address _to, uint256 _value) public override returns (bool success){\n        return transferFrom(msg.sender,_to,_value);\n    }\n\n    // Allow an address to spend the token on behalf\n    function approve(address _spender, uint256 _value) public override returns (bool success){\n        allowed[msg.sender][_spender] = _value;\n        emit Approval(msg.sender,_spender,_value);\n        return true;\n    }\n    \n    // Returns the amount that spender is allowed spend on behalf\n    function allowance(address _owner, address _spender) public override view returns (uint256 remaining){\n        return allowed[_owner][_spender];\n    }\n\n    // Mint tokens\n    function mint(uint _amount) public returns (bool) {\n        require(msg.sender == _minter);\n        balances[_minter]  += _amount;\n        _totalSupply += _amount;\n        return true; \n    }\n\n}",
  "sourcePath": "/home/adibhagavath/blockchain/metacrafters/metacrafters_challenge/contracts/CrowdFundToken.sol",
  "compiler": {
    "name": "solc",
    "version": "0.8.6+commit.11564f7e.Emscripten.clang"
  },
  "schemaVersion": "3.4.11",
  "updatedAt": "2023-01-05T11:59:10.420Z",
  "devdoc": {
    "kind": "dev",
    "methods": {
      "owner()": {
        "details": "Returns the address of the current owner."
      },
      "renounceOwnership()": {
        "details": "Leaves the contract without owner. It will not be possible to call `onlyOwner` functions anymore. Can only be called by the current owner. NOTE: Renouncing ownership will leave the contract without an owner, thereby removing any functionality that is only available to the owner."
      },
      "transferOwnership(address)": {
        "details": "Transfers ownership of the contract to a new account (`newOwner`). Can only be called by the current owner."
      }
    },
    "version": 1
  },
  "userdoc": {
    "kind": "user",
    "methods": {},
    "version": 1
  }
}